:100000000C94E2000C940A010C940A010C940A016D
:100010000C940A010C940A010C940A010C940A0134
:100020000C940A010C940A010C940A010C940A0124
:100030000C940A010C940A010C940A010C940A0114
:100040000C9421050C940A010C94E7040C94AC0464
:100050000C940A010C940A010C940A010C940A01F4
:100060000C940A010C940A01005EBCE2613FDD833E
:10007000C29C7E20A3FD1F419DC3217FFCA2401E88
:100080005F01E3BD3E6082DC237D9FC1421CFEA078
:10009000E1BF5D0380DE3C62BEE0025CDF81633D68
:1000A0007C22C09E1D43A1FF4618FAA427799BC558
:1000B00084DA3866E5BB5907DB856739BAE4065848
:1000C0001947A5FB7826C49A653BD987045AB8E638
:1000D000A7F91B45C6987A24F8A6441A99C7257B28
:1000E0003A6486D85B05E7B98CD2306EEDB3510F18
:1000F0004E10F2AC2F7193CD114FADF3702ECC9208
:10010000D38D6F31B2EC0E50AFF1134DCE90722CF7
:100110006D33D18F0C52B0EE326C8ED0530DEFB1E7
:10012000F0AE4C1291CF2D73CA947628ABF51749D7
:100130000856B4EA6937D58B5709EBB536688AD4C7
:1001400095CB2977F4AA4816E9B7550B88D6346AB7
:100150002B7597C94A14F6A8742AC896154BA9F7A7
:10016000B6E80A54D7896B35000000070002010089
:100170000003040600000000000000000000000072
:10018000250028002B0000000000240027002A0082
:1001900000000000230026002900040404040404D5
:1001A0000404020202020202030303030303010226
:1001B00004081020408001020408102001020408F5
:1001C00010206B0511241FBECFEFD8E0DEBFCDBFDE
:1001D00011E0A0E0B1E0E8E7F6E102C005900D9281
:1001E000A432B107D9F721E0A4E2B1E001C01D9229
:1001F000AC3FB207E1F710E0C2EED0E004C02197B7
:10020000FE010E94340BC13ED107C9F70E942106AE
:100210000C9416090C94000090E0FC01E859FE4F84
:100220002491FC01E255FE4F3491FC01E656FE4F4D
:10023000E491EE2309F43CC0222339F1233091F0FC
:1002400038F42130A9F0223001F584B58F7D12C039
:10025000263091F02730A1F02430B9F4809180004D
:100260008F7D03C0809180008F77809380000DC0C8
:1002700084B58F7784BD09C08091B0008F7703C0AB
:100280008091B0008F7D8093B000F0E0EE0FFF1FF3
:10029000E458FE4FA591B4919FB7F894611104C042
:1002A0008C913095382302C0EC913E2B3C939FBF3C
:1002B0000895DC0180E0615040F09D91E82FE9272E
:1002C000F0E0E859FF4F8491F6CF0895FC0190814A
:1002D0000180F281E02DF8948181892B8183228134
:1002E000892F809528232283A6E0B0E01197F1F7AB
:1002F000218182238183A2E2B0E01197F1F780810E
:100300007894EEECF0E03197F1F7982381E009F46E
:1003100080E00895FC0190810180F281E02D892F19
:10032000809560FF12C0F8942281822382838181AC
:10033000892B8183A2E2B0E01197F1F78281982B9B
:100340009283789486ED90E011C0F8942281822304
:1003500082838181892B8183AEEFB0E01197F1F721
:100360008281982B928378948EE090E00197F1F748
:100370000895DF92EF92FF920F931F93CF93DF9335
:10038000EC01D62EE42E08E010E0FF24F39461E0A7
:100390008D2D8F2109F460E0CE010E948A01FF0CAF
:1003A00001501109A1F7E11010C0F894E981FA8118
:1003B00091818881809589238183E981FA81928165
:1003C00088818095892382837894DF91CF911F91D2
:1003D0000F91FF90EF90DF900895EF92FF920F93AF
:1003E0001F93CF93DF938C017B0140E065E50E9472
:1003F000B901E70188E0E80EF11C699140E0C8010D
:100400000E94B901CE15DF05C1F7DF91CF911F9191
:100410000F91FF90EF900895DC012C911196ED91D2
:10042000FC911297F8948181922F90958923818372
:1004300078948DE742E050E0815021F1DA01119784
:10044000F1F730813223C1F3F894828189238283CA
:100450008181822B81837894AAE7B7E01197F1F725
:10046000F89481819823918382E191E00197F1F7DB
:100470008081282381E009F080E07894E2E6F6E0CC
:100480003197F1F708956F927F928F929F92AF927A
:10049000BF92CF92DF92EF92FF920F931F93CF9371
:1004A000DF938C01EB018091E0019091E1010E94CA
:1004B0000C02882309F447C0B8018091E0019091B3
:1004C000E1010E94ED0140E06EEB8091E00190912E
:1004D000E1010E94B9018E016E0189E0C80ED11CB4
:1004E0007E01A090E001B090E10188E0882E912C7F
:1004F000712C66246394C5010E94660181117628DF
:10050000660CE1E08E1A9108B1F7F70171927F0154
:10051000CE16DF0631F78091E0019091E1010E9453
:100520000C02813081F4F80181918F01811104C0A6
:10053000EC15FD05C1F707C068E0CE010E94590126
:1005400091E02885281390E0892FDF91CF911F91AA
:100550000F91FF90EF90DF90CF90BF90AF909F9062
:100560008F907F906F900895BF92CF92DF92EF921D
:10057000FF920F931F93CF93DF93EC01D62EC72EDC
:100580008D8581115BC0CE010E940C02811104C0D7
:100590001B861D861C8666C040E060EFCE010E946F
:1005A000B90101E0E12CB12C11E0CE010E946601FD
:1005B000F82ECE010E94660191E0F91203C081304D
:1005C000B1F434C02E2D30E0F8121BC08B85181703
:1005D00038F4FE01E20FF31F8381802341F402C04F
:1005E000181729F0F12C193058F41C8709C0FE01A6
:1005F000EE0DF11D8381802B8383FF24F39409C0CA
:10060000B12EFE01E20FF31F9381802F8095892385
:1006100083836F2DCE010E948A011F5F000F11F4AA
:10062000E39401E087E08E1508F0BFCF113430F07D
:10063000BB86B11012C081E08D870FC01B861D865E
:100640001C8680E0DE011396ED2DFC2D2B969D91EE
:100650009193AC17BD07D9F705C08B81882371F33F
:1006600081E0F0CFDF91CF911F910F91FF90EF903C
:10067000DF90CF90BF9008950F931F93CF93DF9398
:10068000FC01A685B7858D01005C1F4FE8018881BC
:10069000998101968F739927AD014E5B5F4FEA01F7
:1006A0002881398128173907D1F3E8012881398158
:1006B000A20FB31F6C93A685B785A05CBF4F1196A0
:1006C0009C938E93A689B7892C9181E090E0078C4A
:1006D00002C0880F991F0A94E2F7822B8C9381E065
:1006E00081A30488F589E02D80818064808381E086
:1006F00090E0DF91CF911F910F910895FC0181A1AE
:10070000882329F0A489B5898C9186FFFBCF11A29B
:100710000895FC01A485B585FD01E05CFF4F2081B3
:1007200031813296808191812817390779F0808153
:100730009181A80FB91F8C91208131812F5F3F4F8C
:100740002F7333273183208390E008958FEF9FEF3D
:100750000895DC011C96ED91FC911D97DF01A05CD2
:10076000BF4F2D913C91119712968D919C911197AD
:100770002817390739F08D919C91E80FF91F808176
:1007800090E008958FEF9FEF0895FC012485358553
:10079000F901E05CFF4F80819181329620813181A7
:1007A000821B930B8F739927089585EB91E00C942E
:1007B000C5030895CF92DF92EF92FF920F931F939C
:1007C000CF93DF936C01EB017B01E40EF51E00E09B
:1007D00010E0CE15DF0561F06991D601ED91FC9135
:1007E0000190F081E02DC6010995080F191FF1CF86
:1007F000C801DF91CF911F910F91FF90EF90DF9093
:10080000CF9008953FB7F8948091250190912601EB
:10081000A0912701B091280126B5A89B05C02F3FC4
:1008200019F00196A11DB11D3FBFBA2FA92F982F16
:100830008827820F911DA11DB11DBC01CD0142E091
:10084000660F771F881F991F4A95D1F70895CF9299
:10085000DF92EF92FF92CF93DF936B017C010E94B6
:100860000204EB01C114D104E104F10479F00E9407
:1008700002046C1B7D0B683E7340A0F381E0C81A34
:10088000D108E108F108C851DC4FECCFDF91CF91DE
:10089000FF90EF90DF90CF900895009769F0FC01F2
:1008A00001900020E9F73197AF01481B590BBC01BB
:1008B00085EB91E00C94DA0380E090E008958F924C
:1008C0009F92AF92BF92EF92FF920F931F93CF939D
:1008D000DF93CDB7DEB7A1970FB6F894DEBF0FBE9A
:1008E000CDBF162F042F19A2423008F40AE07E0172
:1008F00021E2E20EF11C802E912CA12CB12C612F53
:10090000A50194010E94FE0A029F1019112481E0A2
:10091000E81AF1081A3014F4105D01C0195CF701EF
:100920001083122F732FCA01232B242B252B39F769
:10093000C7010E944D04A1960FB6F894DEBF0FBE0A
:10094000CDBFDF91CF911F910F91FF90EF90BF909E
:10095000AF909F908F9008951F920F920FB60F92B5
:1009600011242F933F938F939F93EF93FF932091A5
:100970006D0130916E0180916F0190917001281787
:10098000390731F48091C1008F7D8093C10014C07C
:10099000E0916F01F0917001E35DFE4F2081809145
:1009A0006F019091700101968F7399279093700158
:1009B00080936F012093C600FF91EF919F918F91DB
:1009C0003F912F910F900FBE0F901F9018951F927F
:1009D0000F920FB60F9211242F934F935F938F9323
:1009E0009F93EF93FF938091C00082FD1CC02091E4
:1009F000C6008091B1019091B2014091B301509134
:100A0000B40101968F7399274817590771F0E09147
:100A1000B101F091B201EF58FE4F20839093B201E3
:100A20008093B10102C08091C600FF91EF919F9128
:100A30008F915F914F912F910F900FBE0F901F904C
:100A400018951F920F920FB60F9211242F933F9378
:100A50008F939F93AF93BF938091290190912A0127
:100A6000A0912B01B0912C013091240123E0230FA0
:100A70002D3720F40196A11DB11D05C026E8230FD6
:100A80000296A11DB11D209324018093290190930A
:100A90002A01A0932B01B0932C0180912501909104
:100AA0002601A0912701B09128010196A11DB11D39
:100AB0008093250190932601A0932701B0932801EC
:100AC000BF91AF919F918F913F912F910F900FBE4A
:100AD0000F901F901895CF93DF931092B80110924A
:100AE000B70188EE93E0A0E0B0E08093B901909365
:100AF000BA01A093BB01B093BC018AE091E090934E
:100B0000B6018093B50181E791E09093C201809393
:100B1000C1018DE291E09093C4018093C30185EC03
:100B200090E09093C6018093C50184EC90E090938F
:100B3000C8018093C70180EC90E09093CA01809334
:100B4000C90181EC90E09093CC018093CB0182ECC1
:100B500090E09093CE018093CD0186EC90E090934D
:100B6000D0018093CF0184E08093D10183E0809312
:100B7000D20187E08093D30185E08093D40181E0A6
:100B80008093D501E2EBF1E02491EEE9F1E084916C
:100B90008823C1F090E0880F991FFC01EA57FE4FAF
:100BA000C591D491FC01E458FE4FA591B4919FB733
:100BB000F8948881E22FE0958E2388838C91E82336
:100BC000EC939FBFE2EBF1E0E491E093EE01EEE9FC
:100BD000F1E0E491F0E0EE0FFF1FE057FE4F85914A
:100BE00094919093F0018093EF011092F90110928B
:100BF000FB011092FA01E9EFF1E0129281E0E13F8E
:100C0000F807D9F71092ED011092EC011092D8017B
:100C10008EEE91E09093E1018093E0011092DE016D
:100C20001092DF011092D70189E08093DA0181E010
:100C30008093DB018093DC018093DD01DF91CF9114
:100C40000895CF93DF93CDB7DEB761970FB6F894D1
:100C5000DEBF0FBECDBF789484B5826084BD84B5FD
:100C6000816084BD85B5826085BD85B5816085BDA7
:100C700080916E00816080936E001092810080915F
:100C800081008260809381008091810081608093E7
:100C90008100809180008160809380008091B1000C
:100CA00084608093B1008091B00081608093B00037
:100CB00080917A00846080937A0080917A008260CB
:100CC00080937A0080917A00816080937A0080918D
:100CD0007A00806880937A001092C100E091C90187
:100CE000F091CA0181E090E09C010090D50102C022
:100CF000220F331F0A94E2F72083E091C501F0919F
:100D0000C6011082E091C701F091C8012FEC208349
:100D10001092D601E091CB01F091CC0140819C0171
:100D20000090D10102C0220F331F0A94E2F7242B56
:100D30002083E091CB01F091CC0140819C01009097
:100D4000D20102C0220F331F0A94E2F7242B208322
:100D5000E091CB01F091CC0140819C010090D30146
:100D600002C0220F331F0A94E2F7242B2083E09164
:100D7000CB01F091CC0120810090D40102C0880FFA
:100D8000991F0A94E2F7809582238083E091E00125
:100D9000F091E101138615861486DF011B963396C8
:100DA0001E92EA17FB07E1F71092DE011092DF01B5
:100DB00011E0BE01665F7F4F8091E0019091E101FB
:100DC0000E94B402882309F4D2C067E0CE010A96DB
:100DD0000E94590199898913ECCF8091DE018F5FC0
:100DE0008093DE018A85883209F41DC130F4803198
:100DF00009F419C18232E9F616C18B3309F413C123
:100E00008234B9F610C1E091DA018091DC018823C7
:100E100009F4E0C08091D7018111DCC08FB7F8944C
:100E2000C0902901D0902A01E0902B01F0902C0174
:100E30008FBF8091E0019091E1010E9466018130B5
:100E400009F0B2C0E091E001F091E101138615864E
:100E50001486DF011B96CF0103961E92A817B907CF
:100E6000E1F7BE01665F7F4FCF010E94B402882385
:100E700009F435C167E0CE010A960E9459019989AB
:100E800089132DC1BE016F5F7F4FCE010A960E946C
:100E90004302882309F4C7C12A8130E0C901982F91
:100EA0008827990F990F990F698148E0649FB001D5
:100EB00011249C01262B372B8A85803109F00DC126
:100EC0006885662309F409C170E08F81AB01481B76
:100ED0005109CA019695982F8827979587950E9462
:100EE000EA0A60527109207F53E0220F331F5A959E
:100EF000E1F7620F731F613854EE75070CF4EFC011
:100F0000072E000C880B990B0E94C30920E030E0EB
:100F100040E05CE30E94780A26E636E646EE5FE3B0
:100F20000E94780A20E030E040E052E40E941A0972
:100F30006B017C019B01AC010E94E50A882309F446
:100F4000D5C086E191E00E944D046DE085EB91E013
:100F50000E943C036AE085EB91E00E943C0368EE4E
:100F600073E080E090E00E9427040E94D503809106
:100F7000E0019091E1010E940C0240E06CEC809154
:100F8000E0019091E1010E94B9014091D70164E430
:100F90008091E0019091E1010E94B9018091DB0113
:100FA000882309F44FCF2FCF2FB7F89480912901D0
:100FB00090912A01A0912B01B0912C012FBF8C1987
:100FC0009D09AE09BF098E3E9240A105B10508F406
:100FD00030CF38CFE950E33040F4F0E0EE0FFF1FA0
:100FE000E050FF4F8081918102C08EEE92E06C0153
:100FF000990FEE08FF088091D801882329F060E05E
:101000008091D9010E940C01C701B6010E942704FA
:101010008091D801882309F415CF61E08091D9012E
:101020000E940C010FCF8091DF018F5F8093DF0161
:101030008091D701811126C08091E0019091E1015A
:101040000E940C02BE01665F7F4F8091E00190918B
:10105000E1010E94ED0140E064EB8091E00190919C
:10106000E1010E94B9018091E0019091E1010E94AB
:101070006601F82E8091E0019091E1010E940C023E
:10108000FF2041F18A858031E1F0BE016F5F7F4F23
:10109000CE010A960E944302882379F08D818F3316
:1010A00051F020F48F3149F489E00CC08F3539F0CC
:1010B0008F3739F002C08AE005C080E003C08BE0C2
:1010C00001C08CE09091DA01981708F072CE8093FD
:1010D000DA016FCE1093D701D5CFB9010CCF89E9D2
:1010E000C82EDC2C84E4E82E83ECF82E4601570150
:1010F000E894B7F82FEF3FEF4FE75FE7C501B40182
:101100000E94E50A81110DC02FEF3FEF4FE75FE727
:10111000C501B4010E94860918161CF48AE191E009
:1011200012CF2FEF3FEF4FE75FE4C701B6010E94F8
:10113000730A18161CF48EE191E005CF2FEF3FEFF4
:101140004FE75FECC701B6010E94860987FDF3CF28
:1011500020E030E0A901C701B6010E94860987FF9F
:1011600009C06DE285EB91E00E943C03F7FAF09430
:10117000F7F8F0942AE037ED43EA5BE3C701B601E4
:101180000E941A096B017C010E9492094B015C01CB
:101190000E94C1099B01AC01C701B6010E94190957
:1011A0006B017C014AE0C501B4010E945F0482E248
:1011B00091E00E944D0413E0115009F4C6CE20E0E6
:1011C00030E040E251E4C701B6010E94780A4B01C9
:1011D0005C010E948B096B01770FEE08FF08F7FE98
:1011E00010C06DE285EB91E00E943C0388279927AF
:1011F000DC018C199D09AE09BF094AE0BC01CD0193
:1012000003C04AE0C701B6010E945F04C701B601EE
:101210000E94C3099B01AC01C501B4010E941909D8
:101220006B017C01C9CF60E874EE65CEF8940C9434
:101230003A0B5058BB27AA270E9431090C94390A4F
:101240000E942B0A38F00E94320A20F039F49F3FA6
:1012500019F426F40C94280A0EF4E095E7FB0C949C
:10126000220AE92F0E944A0A58F3BA176207730745
:101270008407950720F079F4A6F50C946C0A0EF417
:10128000E0950B2EBA2FA02D0B01B90190010C0196
:10129000CA01A0011124FF27591B99F0593F50F4AE
:1012A000503E68F11A16F040A22F232F342F442706
:1012B000585FF3CF469537952795A795F0405395FE
:1012C000C9F77EF41F16BA0B620B730B840BBAF0CE
:1012D0009150A1F0FF0FBB1F661F771F881FC2F739
:1012E0000EC0BA0F621F731F841F48F4879577954D
:1012F0006795B795F7959E3F08F0B0CF9395880F07
:1013000008F09927EE0F9795879508950E94FE099A
:1013100008F481E008950E9492096894B1110C9438
:101320006D0A08950E94520A88F09F5798F0B92FCD
:101330009927B751B0F0E1F0660F771F881F991F0A
:101340001AF0BA95C9F714C0B13091F00E946C0A36
:10135000B1E008950C946C0A672F782F8827B85F46
:1013600039F0B93FCCF3869577956795B395D9F762
:101370003EF490958095709561957F4F8F4F9F4F6C
:101380000895E89409C097FB3EF490958095709578
:1013900061957F4F8F4F9F4F9923A9F0F92F96E9C1
:1013A000BB279395F695879577956795B795F11136
:1013B000F8CFFAF4BB0F11F460FF1BC06F5F7F4FD3
:1013C0008F4F9F4F16C0882311F096E911C07723E5
:1013D00021F09EE8872F762F05C0662371F096E8EE
:1013E000862F70E060E02AF09A95660F771F881FBD
:1013F000DAF7880F9695879597F90895990F000861
:10140000550FAA0BE0E8FEEF16161706E807F907D6
:10141000C0F012161306E407F50798F0621B730B71
:10142000840B950B39F40A2661F0232B242B252BF2
:1014300021F408950A2609F4A140A6958FEF811D95
:10144000811D089597F99F6780E870E060E0089536
:101450009FEF80EC089500240A94161617061806CC
:101460000906089500240A941216130614060506A8
:101470000895092E0394000C11F4882352F0BB0F39
:1014800040F4BF2B11F460FF04C06F5F7F4F8F4F9C
:101490009F4F089557FD9058440F551F59F05F3FD7
:1014A00071F04795880F97FB991F61F09F3F79F086
:1014B00087950895121613061406551FF2CF469508
:1014C000F1DF08C0161617061806991FF1CF86958A
:1014D0007105610508940895E894BB27662777276E
:1014E000CB0197F908950E94FE0908F48FEF089543
:1014F0000E948B0A0C94390A0E942B0A38F00E9431
:10150000320A20F0952311F00C94220A0C94280A38
:1015100011240C946D0A0E944A0A70F3959FC1F33E
:10152000950F50E0551F629FF001729FBB27F00D91
:10153000B11D639FAA27F00DB11DAA1F649F6627E6
:10154000B00DA11D661F829F2227B00DA11D621F35
:10155000739FB00DA11D621F839FA00D611D221FEF
:10156000749F3327A00D611D231F849F600D211DD3
:10157000822F762F6A2F11249F5750409AF0F1F056
:1015800088234AF0EE0FFF1FBB1F661F771F881FBF
:1015900091505040A9F79E3F510580F00C94220ACB
:1015A0000C946D0A5F3FE4F3983ED4F386957795EB
:1015B0006795B795F795E7959F5FC1F7FE2B880F65
:1015C000911D9695879597F908950E94FE09880BBD
:1015D000990B089597FB072E16F4009407D077FD1A
:1015E00009D00E94200B07FC05D03EF49095819510
:1015F0009F4F0895709561957F4F0895A1E21A2E2F
:10160000AA1BBB1BFD010DC0AA1FBB1FEE1FFF1FA6
:10161000A217B307E407F50720F0A21BB30BE40BF6
:10162000F50B661F771F881F991F1A9469F760953D
:101630007095809590959B01AC01BD01CF010895F7
:10164000AA1BBB1B51E107C0AA1FBB1FA617B707E8
:1016500010F0A61BB70B881F991F5A95A9F7809504
:101660009095BC01CD010895EE0FFF1F0590F491F8
:08167000E02D0994F894FFCF6E
:101678005E00BC007701000000003C03DA03C503EC
:101688008903A9037E036E616E00696E66006F763A
:0416980066002E00BA
:00000001FF
