:100000000C94E3000C940B010C940B010C940B0169
:100010000C940B010C940B010C940B010C940B0130
:100020000C940B010C940B010C940B010C940B0120
:100030000C940B010C940B010C940B010C940B0110
:100040000C9411050C940B010C949C030C9461030B
:100050000C940B010C940B010C940B010C940B01F0
:100060000C9420070C940B010000000024002700D2
:100070002A0000000000250028002B0000000007D7
:100080000002010000030406000000000000000060
:10009000005EBCE2613FDD83C29C7E20A3FD1F4168
:1000A0009DC3217FFCA2401E5F01E3BD3E6082DC58
:1000B000237D9FC1421CFEA0E1BF5D0380DE3C6248
:1000C000BEE0025CDF81633D7C22C09E1D43A1FF38
:1000D0004618FAA427799BC584DA3866E5BB590728
:1000E000DB856739BAE406581947A5FB7826C49A18
:1000F000653BD987045AB8E6A7F91B45C6987A2408
:10010000F8A6441A99C7257B3A6486D85B05E7B9F7
:100110008CD2306EEDB3510F4E10F2AC2F7193CDE7
:10012000114FADF3702ECC92D38D6F31B2EC0E50D7
:10013000AFF1134DCE90722C6D33D18F0C52B0EEC7
:10014000326C8ED0530DEFB1F0AE4C1291CF2D73B7
:10015000CA947628ABF517490856B4EA6937D58BA7
:100160005709EBB536688AD495CB2977F4AA481697
:10017000E9B7550B88D6346A2B7597C94A14F6A887
:10018000742AC896154BA9F7B6E80A54D7896B3577
:1001900000000000230026002900040404040404D5
:1001A0000404020202020202030303030303010226
:1001B00004081020408001020408102001020408F5
:1001C0001020640E5C0E11241FBECFEFD8E0DEBFFE
:1001D000CDBF11E0A0E0B1E0E8E9F7E202C0059090
:1001E0000D92AE3AB107D9F723E0AEEAB1E001C013
:1001F0001D92A834B207E1F710E0C2EED0E004C0CF
:100200002197FE010E94B913C13ED107C9F70E9490
:10021000FB090C94380F0C9400000F931F93CF939D
:10022000DF93FC01A685B7858D01005C1F4FE801B7
:100230008881998101968F739927AD014E5B5F4F3D
:10024000EA012881398128173907D1F3E80128818B
:100250003981A20FB31F6C93A685B785A05CBF4FF1
:1002600011969C938E93A689B7892C9181E090E09A
:10027000078C02C0880F991F0A94E2F7822B8C9397
:1002800081E081A30488F589E02D808180648083EA
:1002900081E090E0DF91CF911F910F910895FC01D3
:1002A00081A1882329F0A489B5898C9186FFFBCF91
:1002B00011A20895FC01A485B585FD01E05CFF4F06
:1002C000208131813296808191812817390779F018
:1002D00080819181A80FB91F8C91208131812F5F7E
:1002E0003F4F2F7333273183208390E008958FEFA2
:1002F0009FEF0895DC011C96ED91FC911D97DF01A5
:10030000A05CBF4F2D913C91119712968D919C91BD
:1003100011972817390739F08D919C91E80FF91F33
:10032000808190E008958FEF9FEF0895FC01248570
:100330003585F901E05CFF4F808191813296208103
:100340003181821B930B8F73992708958CE992E07A
:100350000C9496010895CF92DF92EF92FF920F9343
:100360001F93CF93DF936C01EB017B01E40EF51E2D
:1003700000E010E0CE15DF0561F06991D601ED9146
:10038000FC910190F081E02DC6010995080F191F1D
:10039000F1CFC801DF91CF911F910F91FF90EF90A6
:1003A000DF90CF900895833081F028F4813099F068
:1003B0008230A1F008958630A9F08730B9F08430FA
:1003C000D1F4809180008F7D03C0809180008F7771
:1003D00080938000089584B58F7702C084B58F7DA7
:1003E00084BD08958091B0008F7703C08091B000E4
:1003F0008F7D8093B0000895CF93DF93282F30E056
:10040000F901E458FF4F8491F901E255FE4FD49170
:10041000F901E656FE4FC491CC2391F081110E9460
:10042000D301EC2FF0E0EE0FFF1FE057FE4FA59138
:10043000B491EC91ED2381E090E021F480E002C0E2
:1004400080E090E0DF91CF9108951F93CF93DF93E9
:10045000282F30E0F901E458FF4F8491F901E2556B
:10046000FE4FD491F901E656FE4FC491CC23C1F062
:10047000162F81110E94D301EC2FF0E0EE0FFF1F29
:10048000EE58FF4FA591B4919FB7F894111104C095
:100490008C91D095D82302C0EC91DE2BDC939FBFCA
:1004A000DF91CF911F9108953FB7F8948091B301E8
:1004B0009091B401A091B501B091B60126B5A89B69
:1004C00005C02F3F19F00196A11DB11D3FBFBA2FE6
:1004D000A92F982F8827820F911DA11DB11DBC0146
:1004E000CD0142E0660F771F881F991F4A95D1F70B
:1004F0000895CF92DF92EF92FF92CF93DF936B013B
:100500007C010E945402EB01C114D104E104F10406
:1005100079F00E9454026C1B7D0B683E7340A0F37F
:1005200081E0C81AD108E108F108C851DC4FECCFCE
:10053000DF91CF91FF90EF90DF90CF900895CF9310
:10054000FC01C48121E02093DE01C093BB01109225
:10055000DC011092DD018385682B88E092E00E9427
:10056000D1059091DD01913208F041C08091E20106
:100570008111FCCF82E08093E20181E08093E4016D
:100580008FEF8093E1011092060290930502ACEB8D
:10059000B1E0E5EEF1E080E0981721F02D91219394
:1005A0008F5FFACF1092070280910702CC0FC82B01
:1005B000C09307028091E301813041F41092E3017E
:1005C000809107028093BB0085EC01C085EE80938B
:1005D000BC008091E2018230E1F38091E1018F3F24
:1005E00031F08091E101803211F08091E1011092AF
:1005F000DC011092DD011092DE01CF9108950F937E
:100600001F93CF938C01C62F0E949F026C2F6460B2
:10061000C8010E949F026C2F6B7FC8010E949F023D
:1006200082EC90E00197F1F7CF911F910F9108951F
:100630000F931F93CF93DF93EC01888199810097EB
:1006400029F02A813B812617370788F48B016F5FD9
:100650007F4F0E949110009761F0998388831B83DC
:100660000A832C813D81232B11F4FC01108281E04F
:1006700001C080E0DF91CF911F910F910895FC019F
:10068000808191810C9408100F931F93CF93DF9377
:100690008C01C62FD42F607F642B0E94FF0280E163
:1006A000C89FB00111246D2BC801DF91CF911F911C
:1006B0000F910C94FF0241E00E94440381E090E01E
:1006C00008951F920F920FB60F9211242F933F930C
:1006D0008F939F93EF93FF93209154023091550293
:1006E00080915602909157022817390731F4809172
:1006F000C1008F7D8093C10014C0E0915602F0913B
:100700005702EC5EFD4F2081809156029091570276
:1007100001968F73992790935702809356022093E6
:10072000C600FF91EF919F918F913F912F910F9074
:100730000FBE0F901F9018951F920F920FB60F9239
:1007400011242F934F935F938F939F93EF93FF9376
:100750008091C00082FD1CC02091C600809198024B
:100760009091990240919A0250919B0201968F7349
:1007700099274817590771F0E0919802F091990272
:10078000E85AFD4F2083909399028093980202C00B
:100790008091C600FF91EF919F918F915F914F9152
:1007A0002F910F900FBE0F901F9018956115710536
:1007B00079F0FB0101900020E9F73197AF01461B6A
:1007C000570BDC01ED91FC910280F381E02D09943F
:1007D00080E090E00895EF92FF920F931F93CF93E4
:1007E000DF936115710511F480E01CC041155105BE
:1007F000C1F07B01EC018C819D818A01080F191FDA
:10080000B801CE010E941803882371F32881398131
:100810008C819D81B701820F931F0E9460111D83FF
:100820000C8381E0DF91CF911F910F91FF90EF90AA
:100830000895CF93DF93EC0188819981009711F09F
:100840000E940810198218821D821C821B821A8243
:10085000DF91CF910895EF92FF920F931F93CF9363
:10086000DF93EC017B018A01BA010E941803811118
:1008700004C0CE010E94190407C01D830C83B70178
:10088000888199810E946011CE01DF91CF911F91E3
:100890000F91FF90EF900895FC0111821082138256
:1008A00012821582148216826115710551F0FB01C6
:1008B00001900020E9F73197AF01461B570B0C94CC
:1008C0002B0408950F931F93CF93DF93CDB7DEB71B
:1008D00065970FB6F894DEBF0FBECDBF0091000143
:1008E00010910101080F191F1093010100930001DD
:1008F00081E00E942F06B801CE010F960E94980653
:100900006EE371E0CE0101960E944C0419861886B0
:100910001B861A861D861C861E8669817A81611552
:10092000710531F04D815E81CE0108960E942B0445
:100930004B895C896F857889CE0108960E94EB030C
:10094000811104C0CE0108960E941904CE010896B8
:100950000E9486060E946206CE0108960E943F030E
:10096000CE0101960E943F03CE010F960E943F03E5
:1009700068EC70E080E090E00E94790265960FB626
:10098000F894DEBF0FBECDBFDF91CF911F910F91C5
:100990000895CF93DF9390E0FC01E255FE4F249140
:1009A000FC01E656FE4F8491882361F190E0880FA8
:1009B000991FFC01E859FF4FC591D491FC01EE58F5
:1009C000FF4FA591B491611109C09FB7F894888138
:1009D000209582238883EC912E230BC0623061F432
:1009E0009FB7F8948881322F309583238883EC91C8
:1009F0002E2B2C939FBF06C08FB7F894E8812E2B27
:100A000028838FBFDF91CF9108952FB7F89460911D
:100A1000AF017091B0018091B1019091B2012FBFEF
:100A200008951F920F920FB60F9211242F933F93A8
:100A30008F939F93AF93BF938091AF019091B0013B
:100A4000A091B101B091B2013091AE0123E0230F2A
:100A50002D3720F40196A11DB11D05C026E8230FF6
:100A60000296A11DB11D2093AE018093AF0190931A
:100A7000B001A093B101B093B2018091B301909104
:100A8000B401A091B501B091B6010196A11DB11DAF
:100A90008093B3019093B401A093B501B093B601D4
:100AA000BF91AF919F918F913F912F910F900FBE6A
:100AB0000F901F90189585ED8093BC008091BC002D
:100AC00084FDFCCF1092E2010895613298F42091E8
:100AD000E201243089F460931303282FA3EFB2E0DE
:100AE000FC018E2F821B861718F481918D93F9CF0C
:100AF00080E0089581E0089582E00895089581E0FE
:100B000090E03091E0012091DF01321710F480E095
:100B100090E091958195910908958091E0019091DF
:100B2000DF01891730F48F5F8093E00180E090E06F
:100B300008958FEF9FEF08958091DF0190E020915D
:100B4000E001821B91090895CF92DF92EF92FF920C
:100B50000F931F93CF93DF937C01CB018A012091E8
:100B6000DE01222389F0EB016B01C40ED51ECC15EA
:100B7000DD0569F06991D701ED91FC910190F0815B
:100B8000E02DC7010995F3CF642F0E946505C801C8
:100B9000DF91CF911F910F91FF90EF90DF90CF9059
:100BA0000895CF93DF931F92CDB7DEB7698320916D
:100BB000DE012223D1F02091DD01203240F021E03E
:100BC00030E0FC013383228380E090E015C0809107
:100BD000DC01E82FF0E0E454FE4F998190838F5FB1
:100BE0008093DC018093DD0105C061E0CE010196B8
:100BF0000E94650581E090E00F90DF91CF9108950C
:100C0000FC0190810180F281E02D892F809560FFA9
:100C100012C0F8942281822382838181892B81836F
:100C2000A2E2B0E01197F1F78281982B9283789439
:100C300086ED90E011C0F894228182238283818125
:100C4000892B8183AEEFB0E01197F1F78281982B69
:100C5000928378948EE090E00197F1F70895CF9316
:100C6000DF93CDB7DEB728970FB6F894DEBF0FBE7F
:100C7000CDBF98E0EEE0F1E0DE01119601900D921B
:100C80009A95E1F79091D802492F50E0282F30E053
:100C90002417350714F08FEF890FFE013196E80F06
:100CA000F11DE80FF11D6081606840E080ED92E089
:100CB00028960FB6F894DEBF0FBECDBFDF91CF915F
:100CC0000C9444030F931F93CF93DF938C01C0E0E8
:100CD000D0E0F80184819581C817D90788F4808114
:100CE0009181009729F0FC01EC0FFD1F608101C08C
:100CF00060E041E080ED92E00E9444032196E9CF5C
:100D0000CE01DF91CF911F910F910895CF93DF9383
:100D1000EC0146E050E067EA71E00E94EB038111CC
:100D200003C0CE010E941904CE01DF91CF91089536
:100D3000EF92FF920F931F93CF93DF93CDB7DEB760
:100D400062970FB6F894DEBF0FBECDBF8C01CB010A
:100D5000F801118210821382128215821482168287
:100D60004AE09E012F5F3F4F7901B9010E943B0F7E
:100D7000F70101900020E9F73197AF014E195F09A3
:100D8000B701C8010E942B0462960FB6F894DEBF2B
:100D90000FBECDBFDF91CF911F910F91FF90EF90CC
:100DA00008958F929F92AF92BF92EF92FF920F930E
:100DB0001F93CF93DF93CDB7DEB7A1970FB6F8940B
:100DC000DEBF0FBECDBF162F042F19A2423008F48C
:100DD0000AE07E0121E2E20EF11C802E912CA12C72
:100DE000B12C612FA50194010E944C13029F101990
:100DF000112481E0E81AF1081A3014F4105D01C0E2
:100E0000195CF7011083122F732FCA01232B242B97
:100E1000252B39F7B7018CE992E00E94D603A19601
:100E20000FB6F894DEBF0FBECDBFDF91CF911F91FB
:100E30000F91FF90EF90BF90AF909F908F9008958B
:100E40001F920F920FB60F9211242F933F934F933F
:100E50005F936F937F938F939F93AF93BF93EF9322
:100E6000FF938091B900887F803609F49CC068F5B3
:100E7000883209F45BC090F4803109F454C038F42E
:100E8000882309F4EFC0883009F44DC0EFC08831E1
:100E900009F44CC0803209F45DC0E8C0803409F424
:100EA00068C048F4803309F455C0883309F0DEC0C7
:100EB0008093E101D1C0803509F44FC0883509F431
:100EC0005DC0883409F0D2C0CFC0883909F4C0C0F1
:100ED000A8F4883709F467C038F4883609F463C089
:100EE000803709F460C0C2C0883809F4B1C08039C5
:100EF00009F45FC0803809F0B9C05BC0803B09F4D9
:100F000081C038F4803A09F466C0883A09F47AC09E
:100F1000ADC0803C09F4A0C0883C09F49DC0883B6A
:100F200009F483C0A3C08091070210C0909106020B
:100F300080910502981770F5E091060281E08E0F0E
:100F400080930602F0E0EB51FE4F80818093BB005E
:100F500085EC7FC08093E10187C0E091060281E0CB
:100F60008E0F809306028091BB00F0E0EB51FE4FA4
:100F70008083909106028091050267C0E09106028D
:100F800081E08E0F809306028091BB00F0E0EB5170
:100F9000FE4F80838091E401811166C081E08093DF
:100FA000E30184EA5AC083E08093E20110923503A2
:100FB000CFCF80913503803208F04AC0E0913503ED
:100FC00081E08E0F809335038091BB00F0E0EB5EF3
:100FD000FC4F8083BDCF80913503803230F4E091A7
:100FE0003503F0E0EB5EFC4F10820E945B056091E0
:100FF000350370E085E193E0E0E0F0E009951092C0
:1010000035032AC084E08093E20110921403109209
:101010001303E0E0F0E0099580911303811105C00E
:1010200081E0809313031092F302E091140381E0B6
:101030008E0F80931403F0E0ED50FD4F808180937C
:10104000BB009091140380911303981708F480CF8C
:1010500085E88093BC000AC085EC8093BC001092A8
:10106000E20104C01092E1010E945B05FF91EF9143
:10107000BF91AF919F918F917F916F915F914F91B0
:101080003F912F910F900FBE0F901F901895DC018C
:1010900080E0615040F09D91E82FE927F0E0E057B3
:1010A000FF4F8491F6CF0895DF92EF92FF920F9356
:1010B0001F93CF93DF93EC01D62EE42E08E010E0CF
:1010C000FF24F39461E08D2D8F2109F460E0CE01BF
:1010D0000E940006FF0C01501109A1F7E11010C099
:1010E000F894E981FA8191818881809589238183AF
:1010F000E981FA819281888180958923828378941D
:10110000DF91CF911F910F91FF90EF90DF900895A5
:10111000EF92FF920F931F93CF93DF938C017B018C
:1011200040E065E50E945408E70188E0E80EF11C04
:10113000699140E0C8010E945408CE15DF05C1F74F
:10114000DF91CF911F910F91FF90EF900895FC01D7
:1011500090810180F281E02DF8948181892B818337
:101160002281892F809528232283A6E0B0E0119761
:10117000F1F7218182238183A2E2B0E01197F1F798
:1011800080817894EEECF0E03197F1F7982381E0DC
:1011900009F480E00895DC012C911196ED91FC9109
:1011A0001297F8948181922F909589238183789466
:1011B0008DE742E050E0815021F1DA011197F1F71B
:1011C00030813223C1F3F894828189238283818123
:1011D000822B81837894AAE7B7E01197F1F7F8940E
:1011E00081819823918382E191E00197F1F78081D9
:1011F000282381E009F080E07894E2E6F6E0319778
:10120000F1F708956F927F928F929F92AF92BF9263
:10121000CF92DF92EF92FF920F931F93CF93DF93C2
:101220008C01EB018091E5029091E6020E94CB08CF
:10123000882309F447C0B8018091E5029091E60245
:101240000E94880840E06EEB8091E5029091E602F2
:101250000E9454088E016E0189E0C80ED11C7E01E7
:10126000A090E502B090E60288E0882E912C712CC7
:1012700066246394C5010E94A70881117628660C34
:10128000E1E08E1A9108B1F7F70171927F01CE1655
:10129000DF0631F78091E5029091E6020E94CB08CB
:1012A000813081F4F80181918F01811104C0EC1526
:1012B000FD05C1F707C068E0CE010E94470891E034
:1012C0002885281390E0892FDF91CF911F910F91EE
:1012D000FF90EF90DF90CF90BF90AF909F908F9056
:1012E0007F906F900895BF92CF92DF92EF92FF921E
:1012F0000F931F93CF93DF93EC01D62EC72E8D85CE
:1013000081115BC0CE010E94CB08811104C01B86F5
:101310001D861C8666C040E060EFCE010E94540826
:1013200001E0E12CB12C11E0CE010E94A708F82EBB
:10133000CE010E94A70891E0F91203C08130B1F4F8
:1013400034C02E2D30E0F8121BC08B85181738F4EE
:10135000FE01E20FF31F8381802341F402C01817BE
:1013600029F0F12C193058F41C8709C0FE01EE0D4C
:10137000F11D8381802B8383FF24F39409C0B12E58
:10138000FE01E20FF31F9381802F809589238383D1
:101390006F2DCE010E9400061F5F000F11F4E39431
:1013A00001E087E08E1508F0BFCF113430F0BB8626
:1013B000B11012C081E08D870FC01B861D861C8670
:1013C00080E0DE011396ED2DFC2D2B969D919193DF
:1013D000AC17BD07D9F705C08B81882371F381E075
:1013E000F0CFDF91CF911F910F91FF90EF90DF90A1
:1013F000CF90BF900895CF93DF93CDB7DEB76197BD
:101400000FB6F894DEBF0FBECDBF789484B582606E
:1014100084BD84B5816084BD85B5826085BD85B598
:10142000816085BD80916E00816080936E00109216
:101430008100809181008260809381008091810091
:101440008160809381008091800081608093800022
:101450008091B10084608093B1008091B000816080
:101460008093B00080917A00846080937A008091AC
:101470007A00826080937A0080917A008160809304
:101480007A0080917A00806880937A001092C1007F
:10149000E091B002F091B10281E090E09C010090F7
:1014A000BC0202C0220F331F0A94E2F72083E091AE
:1014B000AC02F091AD021082E091AE02F091AF0269
:1014C0002FEC20831092BD02E091B202F091B302A2
:1014D00040819C010090B80202C0220F331F0A9481
:1014E000E2F7242B2083E091B202F091B302408115
:1014F0009C010090B90202C0220F331F0A94E2F748
:10150000242B2083E091B202F091B30240819C0130
:101510000090BA0202C0220F331F0A94E2F7242B74
:101520002083E091B202F091B30220810090BB02CF
:1015300002C0880F991F0A94E2F780958223808366
:10154000E091E502F091E602138615861486DF012C
:101550001B9633961E92EA17FB07E1F71092E302FF
:101560001092E40211E0BE01665F7F4F8091E502B8
:101570009091E6020E9473098823F1F067E0CE01A2
:101580000A960E94470899898913EDCF8091E3025A
:101590008F5F8093E3028A85883209F475C230F444
:1015A000803109F471C28232F1F66EC28B3309F4D4
:1015B0006BC28234C1F668C261E087E00E94C90450
:1015C00060E082E00E94C90460E084E00E94C904F7
:1015D0001092E0011092DF011092DC011092DD0107
:1015E0001092E20181E08093E4011092E30161E056
:1015F00082E10E94250261E083E10E942502809140
:10160000B9008E7F8093B9008091B9008D7F80935F
:10161000B90088E48093B80085E48093BC00109200
:10162000D5028091DA02823018F098E09093D502CA
:101630008093D80262E370E080E090E00E9479023B
:101640006091DB0280ED92E00E949F0268EE73E001
:1016500080E090E00E94790260E380ED92E00E94D9
:10166000FF020AE416E4C8010197F1F760E380ED98
:1016700092E00E94FF02C8010197F1F760E380ED5C
:1016800092E00E94FF0282E592E00197F1F760E2AA
:1016900080ED92E00E94FF026091D502606240E01E
:1016A00080ED92E00E94440384E08093D60240E003
:1016B0006CE080ED92E00E94440340E061E080ED48
:1016C00092E00E9444030AE31FE1C8010197F1F789
:1016D00082E08093D70240E066E080ED92E00E94D5
:1016E000440340E062E080ED92E00E944403C801C0
:1016F0000197F1F788E08093DB0260E080ED92E0F3
:101700000E949F0280E00E942F0668E471E080ED55
:1017100092E00E94D60381E00E942F0667E571E007
:1017200080ED92E00E94D603E9E9CE2EDC2CE4E4C1
:10173000EE2EE3ECFE2E0E9405054B015C0180912C
:10174000BE029091BF02A091C002B091C102881662
:101750009906AA06BB06B1F00E9405050091BE02DB
:101760001091BF022091C0023091C102DC01CB0177
:10177000801B910BA20BB30B89389341A105B105D6
:1017800078F46DC10E940505861A970AA80AB90A5D
:1017900049E8841643E19406A104B10408F45FC14A
:1017A0008091E5029091E6020E94CB0840E06CEC4B
:1017B0008091E5029091E6020E9454084091DC027B
:1017C00064E48091E5029091E6020E9454088091C1
:1017D000E002882309F44BC0E091DF028091E1022E
:1017E0008823F1F08091DC0281111AC00E94050566
:1017F0004B015C018091E5029091E6020E94A708EE
:101800008130A9F10E940505DC01CB0188199909F5
:10181000AA09BB098E3E9240A105B10558F327C025
:10182000E950E33040F4F0E0EE0FFF1FE85FFE4FB9
:101830008081918102C08EEE92E04C01990FAA083E
:10184000BB088091DD02882329F060E08091DE02F0
:101850000E942502C501B4010E9479028091DD0237
:10186000882329F061E08091DE020E942502E09148
:10187000E502F091E602138615861486DF011B96B9
:10188000CF0103961E928A179B07E1F7BE01665FA0
:101890007F4FCF010E947309882309F451C167E08B
:1018A000CE010A960E9447089989891349C1BE0151
:1018B0006F5F7F4FCE010A960E940209882309F4C8
:1018C000F8C12A8130E0C901982F8827990F990F14
:1018D000990F698128E0629FB00111249C01262B99
:1018E000372B8A85803109F029C16885662309F480
:1018F00025C170E08F81AB01481B5109CA01969543
:10190000982F8827979587950E9438136052710900
:10191000207F53E0220F331F5A95E1F7620F731FA8
:10192000613854EE75070CF40BC1072E000C880BC0
:10193000990B0E94111220E030E040E05CE30E942D
:10194000C61226E636E646EE5FE30E94C61220E0A7
:1019500030E040E052E40E9468114B015C0160936A
:10196000B7017093B8018093B9019093BA019B01BC
:10197000AC010E943313882309F4F1C065E671E0DD
:101980008CE992E00E94D6036DE08CE992E00E941F
:101990000D016AE08CE992E00E940D016091000166
:1019A00070910101072E000C880B990B0E941112F7
:1019B0002091B7013091B8014091B9015091BA011D
:1019C0000E94C11218160CF069C183E00E942F0614
:1019D00063E771E080ED92E00E94D60361E087E06A
:1019E0000E94250280E00E942F066091B70170914D
:1019F000B8018091B9019091BA010E94D911CE012C
:101A000001960E9498066DE971E0CE010A960E9447
:101A10004C044D815E8169817A81CE010A960E94D3
:101A2000EB03811104C0CE010A960E941904CE0175
:101A30000A960E9486060E946206CE010A960E94BD
:101A40003F03CE0101960E943F030E94050560936B
:101A5000BE027093BF028093C0029093C10284E0E3
:101A60000E94FC01019721F481E090E00E94620451
:101A700082E00E94FC01019721F48FEF9FEF0E940A
:101A800062040E94A60157CE8091E4028F5F80938A
:101A9000E4028091DC02811126C08091E5029091E0
:101AA000E6020E94CB08BE01665F7F4F8091E5028F
:101AB0009091E6020E94880840E064EB8091E50284
:101AC0009091E6020E9454088091E5029091E6020E
:101AD0000E94A708082F8091E5029091E6020E94DB
:101AE000CB08002341F18A858031E1F0BE016F5FB0
:101AF0007F4FCE010A960E940209882379F08D81DA
:101B00008F3351F020F48F3149F489E00CC08F35C8
:101B100039F08F3739F002C08AE005C080E003C099
:101B20008BE001C08CE09091DF02981708F01BCD8C
:101B30008093DF0218CD1093DC02D5CFB901F0CE2F
:101B4000C092B701D092B801E092B901F092BA0107
:101B500089E9882E982C84E4A82E83ECB82E2401E1
:101B60003501E89477F82FEF3FEF4FE75FE7C301C8
:101B7000B2010E94331381110DC02FEF3FEF4FE7E9
:101B80005FE7C301B2010E94D41118161CF469E684
:101B900071E0F6CE2FEF3FEF4FE75FE4C501B401F0
:101BA0000E94C11218161CF46DE671E0E9CE2FEF09
:101BB0003FEF4FE75FECC501B4010E94D41187FDF0
:101BC000F3CF20E030E0A901C501B4010E94D41197
:101BD00087FF09C06DE28CE992E00E940D01B7FA1F
:101BE000B094B7F8B0942AE037ED43EA5BE3C5015F
:101BF000B4010E9468114B015C010E94E0112B01AD
:101C00003C010E940F129B01AC01C501B4010E946E
:101C100067114B015C014AE0C301B2010E94D10689
:101C200061E771E08CE992E00E94D60313E0115065
:101C300009F4AACE20E030E040E251E4C501B4014D
:101C40000E94C6122B013C010E94D9114B01770F53
:101C5000AA08BB08B7FE10C06DE28CE992E00E94B2
:101C60000D0188279927DC0188199909AA09BB0960
:101C70004AE0BC01CD0103C04AE0C501B4010E94A5
:101C8000D106C501B4010E9411129B01AC01C30130
:101C9000B2010E9467114B015C01C9CF83E00E9431
:101CA0002F0668E871E080ED92E00E94D60360E0C4
:101CB00096CE60E874EE34CE82EC92E00E943F0350
:101CC00089EC92E00C943F0310920B0210920A02EE
:101CD00088EE93E0A0E0B0E080930C0290930D02B8
:101CE000A0930E02B0930F022AE131E03093090273
:101CF0002093080210929F0210929E028093A002ED
:101D00009093A102A093A202B093A3028AE291E071
:101D100090939D0280939C0288E592E09093A902A3
:101D20008093A80284E192E09093AB028093AA0290
:101D300085EC90E09093AD028093AC0284EC90E04F
:101D40009093AF028093AE0280EC90E09093B1024A
:101D50008093B00281EC90E09093B3028093B20242
:101D600082EC90E09093B5028093B40286EC90E010
:101D70009093B7028093B60284E08093B80283E028
:101D80008093B90287E08093BA0285E08093BB021A
:101D900081E08093BC0260E088E00E94C904E6EB29
:101DA000F1E0E491E0933603E2EAF1E0E491F0E05F
:101DB000EE0FFF1FE057FE4F8591949190933803EB
:101DC0008093370310924103109243031092420311
:101DD000E1E4F3E089E393E012928E179F07E1F7C5
:101DE0001092F2021092F1021092DD0286E393E06B
:101DF0009093E6028093E5021092E3021092E402CF
:101E00001092DC0289E08093DF0281E08093E0029F
:101E10008093E1028093E2021092D3021092D202E8
:101E20008AE391E09093D1028093D00287E280937D
:101E3000D40284E18093D90284E08093DA02109284
:101E4000DB026DEA71E089EC92E00E944C046DEADD
:101E500071E082EC92E00E944C040E9405056093C0
:101E6000BE027093BF028093C0029093C102089596
:101E7000F8940C94BF13BB274A3031F4992322F411
:101E8000BDE2909581959F4F0C94470FBB27FB01B6
:101E90005527AA27880F991FAA1FA41710F0A41B63
:101EA00083955051B9F7A05DAA3308F0A95DA193BD
:101EB000009779F7B111B1931192CB010C94600F97
:101EC000DC01FC01672F71917723E1F7329704C0A1
:101ED0007C916D9370836291AE17BF07C8F308952C
:101EE0000F931F93CF93DF938230910510F482E01C
:101EF00090E0E0914603F091470320E030E0A0E05D
:101F0000B0E0309719F14081518102811381481767
:101F10005907C8F08417950769F4109731F01296A5
:101F20000C93129713961C9327C0009346031093AB
:101F3000470322C02115310519F04217530718F441
:101F40009A01BD01EF01DF01F801DBCF2115310559
:101F5000F9F0281B390B2430310580F48A819B81EC
:101F60006115710521F0FB019383828304C0909376
:101F7000470380934603FE01329644C0FE01E20F00
:101F8000F31F8193919322503109398328833AC0FA
:101F90002091440330914503232B41F42091040107
:101FA00030910501309345032093440320910201B1
:101FB000309103012115310541F42DB73EB7409111
:101FC000060150910701241B350BE0914403F09169
:101FD0004503E217F307A0F42E1B3F0B2817390720
:101FE00078F0AC014E5F5F4F2417350748F04E0F75
:101FF0005F1F50934503409344038193919302C024
:10200000E0E0F0E0CF01DF91CF911F910F910895B3
:10201000CF93DF93009709F481C0FC0132971382BC
:102020001282A0914603B0914703109781F420815A
:102030003181820F931F209144033091450328176B
:10204000390751F5F0934503E093440367C0ED0170
:1020500020E030E0CE17DF0740F44A815B819E012B
:1020600041155105F1F0EA01F5CFD383C2834081D8
:102070005181840F951FC817D90759F48881998118
:10208000840F951F0296918380838A819B8193831D
:1020900082832115310529F4F0934703E093460329
:1020A0003DC0E901FB83EA8349915991C40FD51FD3
:1020B000EC17FD0761F480819181840F951F0296D2
:1020C000E90199838883828193819B838A83E0E0FD
:1020D000F0E012968D919C911397009719F0FD01F5
:1020E000DC01F7CF8D919C9111979D012E5F3F4FA1
:1020F000820F931F2091440330914503281739071D
:1021000069F4309729F4109247031092460302C0F5
:1021100013821282B0934503A0934403DF91CF91C1
:102120000895A0E0B0E0E7E9F0E10C947213EC014F
:10213000009721F4CB010E94700FB4C0FC01E60FA0
:10214000F71F9C0122503109E217F30708F4A8C0D9
:10215000D9010D911C91119706171707B0F00530A2
:10216000110508F49BC0C80104978617970708F467
:1021700095C002501109061B170B019311936D9323
:102180007C93CF010E94081089C05B01A01AB10A9C
:102190004C01800E911EA0914603B0914703612C23
:1021A000712CE12CF12C109709F446C08D919C9173
:1021B0001197A815B905B1F56C0142E0C40ED11C08
:1021C000CA14DB0478F14C018A189B08640142E0D0
:1021D000C40ED11C1296BC9012971396AC91B5E028
:1021E000CB16D10440F0B282A38391828082D901C0
:1021F0006D937C9309C00E5F1F4F800F911FF901F3
:1022000091838083EB2DFA2FE114F10431F0D70193
:102210001396FC93EE93129741C0F0934703E0931B
:1022200046033CC06816790608F43C017D0112960D
:102230000D90BC91A02DB7CF8091440390914503A0
:1022400088169906E1F466167706C8F480910201B3
:1022500090910301009741F48DB79EB7409106011C
:1022600050910701841B950BE817F907C8F4F09308
:102270004503E0934403F901718360830FC0CB01F0
:102280000E94700F7C01009759F0A801BE010E94C6
:102290005711CE010E940810C70104C0CE0102C030
:1022A00080E090E0CDB7DEB7EEE00C948E13FB013A
:1022B000DC0102C001900D9241505040D8F70895C2
:1022C000FB01DC0101900D920020E1F708955058C8
:1022D000BB27AA270E947F110C9487120E947912B3
:1022E00038F00E94801220F039F49F3F19F426F450
:1022F0000C9476120EF4E095E7FB0C947012E92F23
:102300000E94981258F3BA1762077307840795075B
:1023100020F079F4A6F50C94BA120EF4E0950B2E89
:10232000BA2FA02D0B01B90190010C01CA01A00127
:102330001124FF27591B99F0593F50F4503E68F182
:102340001A16F040A22F232F342F4427585FF3CFC3
:10235000469537952795A795F0405395C9F77EF494
:102360001F16BA0B620B730B840BBAF09150A1F0DD
:10237000FF0FBB1F661F771F881FC2F70EC0BA0F63
:10238000621F731F841F48F4879577956795B795EB
:10239000F7959E3F08F0B0CF9395880F08F09927E6
:1023A000EE0F9795879508950E944C1208F481E0EE
:1023B00008950E94E0116894B1110C94BB12089525
:1023C0000E94A01288F09F5798F0B92F9927B75113
:1023D000B0F0E1F0660F771F881F991F1AF0BA95C9
:1023E000C9F714C0B13091F00E94BA12B1E008955B
:1023F0000C94BA12672F782F8827B85F39F0B93F4D
:10240000CCF3869577956795B395D9F73EF490957B
:102410008095709561957F4F8F4F9F4F0895E894F9
:1024200009C097FB3EF490958095709561957F4F1C
:102430008F4F9F4F9923A9F0F92F96E9BB279395CA
:10244000F695879577956795B795F111F8CFFAF4DA
:10245000BB0F11F460FF1BC06F5F7F4F8F4F9F4F0B
:1024600016C0882311F096E911C0772321F09EE869
:10247000872F762F05C0662371F096E8862F70E0CF
:1024800060E02AF09A95660F771F881FDAF7880FA9
:102490009695879597F90895990F0008550FAA0BFF
:1024A000E0E8FEEF16161706E807F907C0F0121667
:1024B0001306E407F50798F0621B730B840B950B6A
:1024C00039F40A2661F0232B242B252B21F40895BF
:1024D0000A2609F4A140A6958FEF811D811D08955C
:1024E00097F99F6780E870E060E008959FEF80ECC7
:1024F000089500240A94161617061806090608956A
:1025000000240A9412161306140605060895092ECF
:102510000394000C11F4882352F0BB0F40F4BF2B3E
:1025200011F460FF04C06F5F7F4F8F4F9F4F08957E
:1025300057FD9058440F551F59F05F3F71F0479574
:10254000880F97FB991F61F09F3F79F08795089559
:10255000121613061406551FF2CF4695F1DF08C078
:10256000161617061806991FF1CF86957105610595
:1025700008940895E894BB2766277727CB0197F93D
:1025800008950E944C1208F48FEF08950E94D9120A
:102590000C9487120E94791238F00E94801220F069
:1025A000952311F00C9470120C94761211240C9453
:1025B000BB120E94981270F3959FC1F3950F50E0E3
:1025C000551F629FF001729FBB27F00DB11D639FE5
:1025D000AA27F00DB11DAA1F649F6627B00DA11D8B
:1025E000661F829F2227B00DA11D621F739FB00D31
:1025F000A11D621F839FA00D611D221F749F3327A1
:10260000A00D611D231F849F600D211D822F762F39
:102610006A2F11249F5750409AF0F1F088234AF016
:10262000EE0FFF1FBB1F661F771F881F9150504082
:10263000A9F79E3F510580F00C9470120C94BB12C8
:102640005F3FE4F3983ED4F3869577956795B79509
:10265000F795E7959F5FC1F7FE2B880F911D969523
:10266000879597F908950E944C12880B990B08954D
:1026700097FB072E16F4009407D077FD09D00E942F
:10268000A51307FC05D03EF4909581959F4F0895C2
:10269000709561957F4F0895A1E21A2EAA1BBB1B6E
:1026A000FD010DC0AA1FBB1FEE1FFF1FA217B3071E
:1026B000E407F50720F0A21BB30BE40BF50B661F34
:1026C000771F881F991F1A9469F7609570958095F8
:1026D00090959B01AC01BD01CF0108952F923F92CF
:1026E0004F925F926F927F928F929F92AF92BF9222
:1026F000CF92DF92EF92FF920F931F93CF93DF93CE
:10270000CDB7DEB7CA1BDB0B0FB6F894DEBF0FBE2A
:10271000CDBF09942A88398848885F846E847D8477
:102720008C849B84AA84B984C884DF80EE80FD8079
:102730000C811B81AA81B981CE0FD11D0FB6F894EF
:10274000DEBF0FBECDBFED010895AA1BBB1B51E13B
:1027500007C0AA1FBB1FA617B70710F0A61BB70B11
:10276000881F991F5A95A9F780959095BC01CD01B6
:102770000895EE0FFF1F0590F491E02D099410E0ED
:10278000C2EED0E004C0FE010E94B9132196C33E00
:08279000D107C9F7F894FFCF4F
:1027980086000000480320005E00BC0077010000AE
:1027A80040001400540000000000D105A4059C0559
:1027B8008D057F057E05000000000D01AB01960127
:1027C8005A017A014F01000000005B03AB01446528
:1027D80073697265643A200043757272656E743A63
:1027E800203133342A3A00446573697265643A20AB
:1027F8003133342A006E616E00696E66006F76664A
:10280800002E0020202020202020202020202020F2
:1028180052756E6E696E67002020202020202020CF
:10282800204E6F742052756E6E696E670043757224
:0E28380072656E743A20002A202020202000B5
:00000001FF
