:100000000C945D000C9485000C9485000C94850084
:100010000C9485000C9485000C9485000C9485004C
:100020000C9485000C9485000C9485000C9485003C
:100030000C9485000C9485000C9485000C9485002C
:100040000C9481020C9485000C9447020C940C02D1
:100050000C9485000C9485000C9485000C9485000C
:100060000C9485000C9485000000000024002700FB
:100070002A0000000000250028002B0004040404CE
:100080000404040402020202020203030303030342
:10009000010204081020408001020408102001021F
:1000A00004081020000000070002010000030406FD
:1000B0000000000000000000CB0211241FBECFEFA3
:1000C000D8E0DEBFCDBF11E0A0E0B1E0E0E1F8E0B4
:1000D00002C005900D92A633B107D9F721E0A6E33F
:1000E000B1E001C01D92A93EB207E1F710E0CDE5F5
:1000F000D0E004C02197FE010E940004CC35D10756
:10010000C9F70E9406030C94FD030C940000E1EB78
:10011000F0E09491EDE9F0E02491E9E8F0E0E49179
:10012000EE2309F43CC0992339F1933091F038F46F
:100130009130A9F0923001F594B59F7D12C09630B0
:1001400091F09730A1F09430B9F4909180009F7DA8
:1001500003C0909180009F77909380000DC094B56C
:100160009F7794BD09C09091B0009F7703C0909194
:10017000B0009F7D9093B000F0E0EE0FFF1FEE58AF
:10018000FF4FA591B4919FB7F894811104C08C9151
:100190002095282302C0EC912E2B2C939FBF08950D
:1001A0000F931F93CF93DF93FC01A685B7858D0135
:1001B000005C1F4FE8018881998101968F73992710
:1001C000AD014E5B5F4FEA0128813981281739075D
:1001D000D1F3E80128813981A20FB31F6C93A68562
:1001E000B785A05CBF4F11969C938E93A689B78963
:1001F0002C9181E090E0078C02C0880F991F0A942F
:10020000E2F7822B8C9381E081A30488F589E02DAD
:1002100080818064808381E090E0DF91CF911F91A5
:100220000F910895FC0181A1882329F0A489B58943
:100230008C9186FFFBCF11A20895FC01A485B585A2
:10024000FD01E05CFF4F20813181329680819181F8
:100250002817390779F080819181A80FB91F8C91F7
:10026000208131812F5F3F4F2F73332731832083CC
:1002700090E008958FEF9FEF0895DC011C96ED91BB
:10028000FC911D97DF01A05CBF4F2D913C91119710
:1002900012968D919C9111972817390739F08D91FD
:1002A0009C91E80FF91F808190E008958FEF9FEFF8
:1002B0000895FC0124853585F901E05CFF4F8081BC
:1002C0009181329620813181821B930B8F73992704
:1002D000089587EC91E00C9459010895CF92DF9234
:1002E000EF92FF920F931F93CF93DF936C01EB017B
:1002F0007B01E40EF51E00E010E0CE15DF0561F095
:100300006991D601ED91FC910190F081E02DC6013B
:100310000995080F191FF1CFC801DF91CF911F91E7
:100320000F91FF90EF90DF90CF9008953FB7F89432
:1003300080913B0190913C01A0913D01B0913E0123
:1003400026B5A89B05C02F3F19F00196A11DB11D30
:100350003FBFBA2FA92F982F8827820F911DA11D6B
:10036000B11DBC01CD0142E0660F771F881F991FA8
:100370004A95D1F70895CF92DF92EF92FF92CF93F3
:10038000DF936B017C010E949601EB01C114D10443
:10039000E104F10479F00E9496016C1B7D0B683E2C
:1003A0007340A0F381E0C81AD108E108F108C851F0
:1003B000DC4FECCFDF91CF91FF90EF90DF90CF90AB
:1003C00008950F931F93CF93DF93009779F0FC016B
:1003D00001900020E9F73197AF01481B590BBC0190
:1003E00087EC91E00E946E018C0102C000E010E0F9
:1003F0006DE087EC91E00E94D000EC016AE087ECB0
:1004000091E00E94D000C00FD11F8C0F9D1FDF9183
:10041000CF911F910F9108951F920F920FB60F92D7
:1004200011242F933F938F939F93EF93FF932091EA
:100430007F01309180018091810190918201281784
:10044000390731F48091C1008F7D8093C10014C0C1
:10045000E0918101F0918201E15CFE4F2081809169
:1004600081019091820101968F7399279093820167
:10047000809381012093C600FF91EF919F918F910E
:100480003F912F910F900FBE0F901F9018951F92C4
:100490000F920FB60F9211242F934F935F938F9368
:1004A0009F93EF93FF938091C00082FD1CC0209129
:1004B000C6008091C3019091C4014091C501509143
:1004C000C60101968F7399274817590771F0E0917B
:1004D000C301F091C401ED57FE4F20839093C401F6
:1004E0008093C30102C08091C600FF91EF919F915C
:1004F0008F915F914F912F910F900FBE0F901F9092
:1005000018951F920F920FB60F9211242F933F93BD
:100510008F939F93AF93BF93809137019091380150
:10052000A0913901B0913A013091360123E0230FB7
:100530002D3720F40196A11DB11D05C026E8230F1B
:100540000296A11DB11D209336018093370190932F
:100550003801A0933901B0933A0180913B01909109
:100560003C01A0913D01B0913E010196A11DB11D3C
:1005700080933B0190933C01A0933D01B0933E01D9
:10058000BF91AF919F918F913F912F910F900FBE8F
:100590000F901F901895E7ECF1E01382128288EE1D
:1005A00093E0A0E0B0E084839583A683B78384E0E2
:1005B00091E09183808383E891E0958784878FE33E
:1005C00091E09787868785EC90E0918B808B84EC17
:1005D00090E0938B828B80EC90E0958B848B81EC08
:1005E00090E0978B868B82EC90E0918F808F86ECE9
:1005F00090E0938F828F84E0848F83E0858F87E003
:10060000868F85E0878F81E080A30895789484B5F4
:10061000826084BD84B5816084BD85B5826085BDFE
:1006200085B5816085BD80916E00816080936E008C
:10063000109281008091810082608093810080917E
:10064000810081608093810080918000816080932F
:1006500080008091B10084608093B1008091B000EF
:1006600081608093B00080917A00846080937A00EA
:1006700080917A00826080937A0080917A00816014
:1006800080937A0080917A00806880937A0010923B
:10069000C100EDE9F0E02491E9E8F0E084918823DD
:1006A00099F090E0880F991FFC01E859FF4FA59140
:1006B000B491FC01EE58FF4F859194918FB7F89457
:1006C000EC91E22BEC938FBFE091DB01F091DC0128
:1006D00081E090E09C010090E70102C0220F331FEF
:1006E0000A94E2F72083E091D701F091D8011082BB
:1006F000E091D901F091DA012FEC20831092E8010A
:10070000E091DD01F091DE0140819C010090E30168
:1007100002C0220F331F0A94E2F7242B2083E091BA
:10072000DD01F091DE0140819C010090E40102C0F6
:10073000220F331F0A94E2F7242B2083E091DD017E
:10074000F091DE0140819C010090E50102C0220F82
:10075000331F0A94E2F7242B2083E091DD01F0910E
:10076000DE0120810090E60102C0880F991F0A94E3
:10077000E2F780958223808381E00E94870068EE03
:1007800073E080E090E00E94BB0180E00E9487005F
:1007900068EE73E080E090E00E94BB0180E191E0B0
:1007A0000E94E10181E00E94870068EC70E080E037
:1007B00090E00E94BB0180E00E94870068EC70E03E
:1007C00080E090E00E94BB0181E00E94870068EC1D
:1007D00070E080E090E00E94BB0180E00E94870012
:1007E00068EE73E080E090E00E94BB018CE191E054
:1007F0000E94E1010E946901BFCFF8940C940604A5
:10080000EE0FFF1F0590F491E02D0994F894FFCFAF
:1008100000000000D0006E0159011D013D011201D0
:1008200048656C6C6F20576F726C640073667470EF
:100830002074657374206D6F7468657220667563CB
:060840006B65722100004F
:00000001FF
